{
  "contractName": "Spacebear",
  "abi": [
    {
      "inputs": [],
      "stateMutability": "nonpayable",
      "type": "constructor"
    },
    {
      "anonymous": false,
      "inputs": [
        {
          "indexed": true,
          "internalType": "address",
          "name": "owner",
          "type": "address"
        },
        {
          "indexed": true,
          "internalType": "address",
          "name": "approved",
          "type": "address"
        },
        {
          "indexed": true,
          "internalType": "uint256",
          "name": "tokenId",
          "type": "uint256"
        }
      ],
      "name": "Approval",
      "type": "event"
    },
    {
      "anonymous": false,
      "inputs": [
        {
          "indexed": true,
          "internalType": "address",
          "name": "from",
          "type": "address"
        },
        {
          "indexed": true,
          "internalType": "address",
          "name": "to",
          "type": "address"
        },
        {
          "indexed": true,
          "internalType": "uint256",
          "name": "tokenId",
          "type": "uint256"
        }
      ],
      "name": "Transfer",
      "type": "event"
    },
    {
      "inputs": [],
      "name": "name",
      "outputs": [
        {
          "internalType": "string",
          "name": "",
          "type": "string"
        }
      ],
      "stateMutability": "view",
      "type": "function",
      "constant": true
    },
    {
      "inputs": [],
      "name": "owner",
      "outputs": [
        {
          "internalType": "address",
          "name": "",
          "type": "address"
        }
      ],
      "stateMutability": "view",
      "type": "function",
      "constant": true
    },
    {
      "inputs": [],
      "name": "symbol",
      "outputs": [
        {
          "internalType": "string",
          "name": "",
          "type": "string"
        }
      ],
      "stateMutability": "view",
      "type": "function",
      "constant": true
    },
    {
      "inputs": [
        {
          "internalType": "address",
          "name": "to",
          "type": "address"
        },
        {
          "internalType": "string",
          "name": "uri",
          "type": "string"
        }
      ],
      "name": "safeMint",
      "outputs": [],
      "stateMutability": "nonpayable",
      "type": "function"
    },
    {
      "inputs": [
        {
          "internalType": "address",
          "name": "ownerAddress",
          "type": "address"
        }
      ],
      "name": "balanceOf",
      "outputs": [
        {
          "internalType": "uint256",
          "name": "",
          "type": "uint256"
        }
      ],
      "stateMutability": "view",
      "type": "function",
      "constant": true
    },
    {
      "inputs": [
        {
          "internalType": "uint256",
          "name": "tokenId",
          "type": "uint256"
        }
      ],
      "name": "ownerOf",
      "outputs": [
        {
          "internalType": "address",
          "name": "",
          "type": "address"
        }
      ],
      "stateMutability": "view",
      "type": "function",
      "constant": true
    },
    {
      "inputs": [
        {
          "internalType": "address",
          "name": "from",
          "type": "address"
        },
        {
          "internalType": "address",
          "name": "to",
          "type": "address"
        },
        {
          "internalType": "uint256",
          "name": "tokenId",
          "type": "uint256"
        }
      ],
      "name": "transferFrom",
      "outputs": [],
      "stateMutability": "nonpayable",
      "type": "function"
    },
    {
      "inputs": [
        {
          "internalType": "address",
          "name": "to",
          "type": "address"
        },
        {
          "internalType": "uint256",
          "name": "tokenId",
          "type": "uint256"
        }
      ],
      "name": "approve",
      "outputs": [],
      "stateMutability": "nonpayable",
      "type": "function"
    },
    {
      "inputs": [
        {
          "internalType": "uint256",
          "name": "tokenId",
          "type": "uint256"
        }
      ],
      "name": "getApproved",
      "outputs": [
        {
          "internalType": "address",
          "name": "",
          "type": "address"
        }
      ],
      "stateMutability": "view",
      "type": "function",
      "constant": true
    },
    {
      "inputs": [
        {
          "internalType": "uint256",
          "name": "tokenId",
          "type": "uint256"
        }
      ],
      "name": "tokenURI",
      "outputs": [
        {
          "internalType": "string",
          "name": "",
          "type": "string"
        }
      ],
      "stateMutability": "view",
      "type": "function",
      "constant": true
    }
  ],
  "bytecode": "0x60806040526040518060400160405280600981526020017f53706163656265617200000000000000000000000000000000000000000000008152505f908162000049919062000348565b506040518060400160405280600381526020017f53425200000000000000000000000000000000000000000000000000000000008152506001908162000090919062000348565b503480156200009d575f80fd5b503360025f6101000a81548173ffffffffffffffffffffffffffffffffffffffff021916908373ffffffffffffffffffffffffffffffffffffffff1602179055506200042c565b5f81519050919050565b7f4e487b71000000000000000000000000000000000000000000000000000000005f52604160045260245ffd5b7f4e487b71000000000000000000000000000000000000000000000000000000005f52602260045260245ffd5b5f60028204905060018216806200016057607f821691505b6020821081036200017657620001756200011b565b5b50919050565b5f819050815f5260205f209050919050565b5f6020601f8301049050919050565b5f82821b905092915050565b5f60088302620001da7fffffffffffffffffffffffffffffffffffffffffffffffffffffffffffffffff826200019d565b620001e686836200019d565b95508019841693508086168417925050509392505050565b5f819050919050565b5f819050919050565b5f620002306200022a6200022484620001fe565b62000207565b620001fe565b9050919050565b5f819050919050565b6200024b8362000210565b620002636200025a8262000237565b848454620001a9565b825550505050565b5f90565b620002796200026b565b6200028681848462000240565b505050565b5b81811015620002ad57620002a15f826200026f565b6001810190506200028c565b5050565b601f821115620002fc57620002c6816200017c565b620002d1846200018e565b81016020851015620002e1578190505b620002f9620002f0856200018e565b8301826200028b565b50505b505050565b5f82821c905092915050565b5f6200031e5f198460080262000301565b1980831691505092915050565b5f6200033883836200030d565b9150826002028217905092915050565b6200035382620000e4565b67ffffffffffffffff8111156200036f576200036e620000ee565b5b6200037b825462000148565b62000388828285620002b1565b5f60209050601f831160018114620003be575f8415620003a9578287015190505b620003b585826200032b565b86555062000424565b601f198416620003ce866200017c565b5f5b82811015620003f757848901518255600182019150602085019450602081019050620003d0565b8683101562000417578489015162000413601f8916826200030d565b8355505b6001600288020188555050505b505050505050565b611826806200043a5f395ff3fe608060405234801561000f575f80fd5b506004361061009c575f3560e01c806370a082311161006457806370a08231146101565780638da5cb5b1461018657806395d89b41146101a4578063c87b56dd146101c2578063d204c45e146101f25761009c565b806306fdde03146100a0578063081812fc146100be578063095ea7b3146100ee57806323b872dd1461010a5780636352211e14610126575b5f80fd5b6100a861020e565b6040516100b59190610ddc565b60405180910390f35b6100d860048036038101906100d39190610e40565b610299565b6040516100e59190610eaa565b60405180910390f35b61010860048036038101906101039190610eed565b61031a565b005b610124600480360381019061011f9190610f2b565b610411565b005b610140600480360381019061013b9190610e40565b61069f565b60405161014d9190610eaa565b60405180910390f35b610170600480360381019061016b9190610f7b565b61074b565b60405161017d9190610fb5565b60405180910390f35b61018e6107ff565b60405161019b9190610eaa565b60405180910390f35b6101ac610824565b6040516101b99190610ddc565b60405180910390f35b6101dc60048036038101906101d79190610e40565b6108b0565b6040516101e99190610ddc565b60405180910390f35b61020c600480360381019061020791906110fa565b610999565b005b5f805461021a90611181565b80601f016020809104026020016040519081016040528092919081815260200182805461024690611181565b80156102915780601f1061026857610100808354040283529160200191610291565b820191905f5260205f20905b81548152906001019060200180831161027457829003601f168201915b505050505081565b5f6102a382610b69565b6102e2576040517f08c379a00000000000000000000000000000000000000000000000000000000081526004016102d9906111fb565b60405180910390fd5b60075f8381526020019081526020015f205f9054906101000a900473ffffffffffffffffffffffffffffffffffffffff169050919050565b5f6103248261069f565b90508073ffffffffffffffffffffffffffffffffffffffff168373ffffffffffffffffffffffffffffffffffffffff1603610394576040517f08c379a000000000000000000000000000000000000000000000000000000000815260040161038b90611263565b60405180910390fd5b8073ffffffffffffffffffffffffffffffffffffffff163373ffffffffffffffffffffffffffffffffffffffff1614610402576040517f08c379a00000000000000000000000000000000000000000000000000000000081526004016103f9906112cb565b60405180910390fd5b61040c8383610bd1565b505050565b61041b3382610c87565b61045a576040517f08c379a000000000000000000000000000000000000000000000000000000000815260040161045190611333565b60405180910390fd5b8273ffffffffffffffffffffffffffffffffffffffff1661047a8261069f565b73ffffffffffffffffffffffffffffffffffffffff16146104d0576040517f08c379a00000000000000000000000000000000000000000000000000000000081526004016104c79061139b565b60405180910390fd5b5f73ffffffffffffffffffffffffffffffffffffffff168273ffffffffffffffffffffffffffffffffffffffff160361053e576040517f08c379a000000000000000000000000000000000000000000000000000000000815260040161053590611403565b60405180910390fd5b6105485f82610bd1565b600160055f8573ffffffffffffffffffffffffffffffffffffffff1673ffffffffffffffffffffffffffffffffffffffff1681526020019081526020015f205f828254610595919061144e565b92505081905550600160055f8473ffffffffffffffffffffffffffffffffffffffff1673ffffffffffffffffffffffffffffffffffffffff1681526020019081526020015f205f8282546105e99190611481565b925050819055508160045f8381526020019081526020015f205f6101000a81548173ffffffffffffffffffffffffffffffffffffffff021916908373ffffffffffffffffffffffffffffffffffffffff160217905550808273ffffffffffffffffffffffffffffffffffffffff168473ffffffffffffffffffffffffffffffffffffffff167fddf252ad1be2c89b69c2b068fc378daa952ba7f163c4a11628f55a4df523b3ef60405160405180910390a4505050565b5f8060045f8481526020019081526020015f205f9054906101000a900473ffffffffffffffffffffffffffffffffffffffff1690505f73ffffffffffffffffffffffffffffffffffffffff168173ffffffffffffffffffffffffffffffffffffffff1603610742576040517f08c379a0000000000000000000000000000000000000000000000000000000008152600401610739906111fb565b60405180910390fd5b80915050919050565b5f8073ffffffffffffffffffffffffffffffffffffffff168273ffffffffffffffffffffffffffffffffffffffff16036107ba576040517f08c379a00000000000000000000000000000000000000000000000000000000081526004016107b1906114fe565b60405180910390fd5b60055f8373ffffffffffffffffffffffffffffffffffffffff1673ffffffffffffffffffffffffffffffffffffffff1681526020019081526020015f20549050919050565b60025f9054906101000a900473ffffffffffffffffffffffffffffffffffffffff1681565b6001805461083190611181565b80601f016020809104026020016040519081016040528092919081815260200182805461085d90611181565b80156108a85780601f1061087f576101008083540402835291602001916108a8565b820191905f5260205f20905b81548152906001019060200180831161088b57829003601f168201915b505050505081565b60606108bb82610b69565b6108fa576040517f08c379a00000000000000000000000000000000000000000000000000000000081526004016108f1906111fb565b60405180910390fd5b60065f8381526020019081526020015f20805461091690611181565b80601f016020809104026020016040519081016040528092919081815260200182805461094290611181565b801561098d5780601f106109645761010080835404028352916020019161098d565b820191905f5260205f20905b81548152906001019060200180831161097057829003601f168201915b50505050509050919050565b60025f9054906101000a900473ffffffffffffffffffffffffffffffffffffffff1673ffffffffffffffffffffffffffffffffffffffff163373ffffffffffffffffffffffffffffffffffffffff1614610a28576040517f08c379a0000000000000000000000000000000000000000000000000000000008152600401610a1f90611566565b60405180910390fd5b5f6003549050600160035f828254610a409190611481565b925050819055508260045f8381526020019081526020015f205f6101000a81548173ffffffffffffffffffffffffffffffffffffffff021916908373ffffffffffffffffffffffffffffffffffffffff160217905550600160055f8573ffffffffffffffffffffffffffffffffffffffff1673ffffffffffffffffffffffffffffffffffffffff1681526020019081526020015f205f828254610ae39190611481565b925050819055508160065f8381526020019081526020015f209081610b089190611721565b50808373ffffffffffffffffffffffffffffffffffffffff165f73ffffffffffffffffffffffffffffffffffffffff167fddf252ad1be2c89b69c2b068fc378daa952ba7f163c4a11628f55a4df523b3ef60405160405180910390a4505050565b5f8073ffffffffffffffffffffffffffffffffffffffff1660045f8481526020019081526020015f205f9054906101000a900473ffffffffffffffffffffffffffffffffffffffff1673ffffffffffffffffffffffffffffffffffffffff1614159050919050565b8160075f8381526020019081526020015f205f6101000a81548173ffffffffffffffffffffffffffffffffffffffff021916908373ffffffffffffffffffffffffffffffffffffffff160217905550808273ffffffffffffffffffffffffffffffffffffffff16610c418361069f565b73ffffffffffffffffffffffffffffffffffffffff167f8c5be1e5ebec7d5bd14f71427d1e84f3dd0314c0f7b2291e5b200ac8c7c3b92560405160405180910390a45050565b5f610c9182610b69565b610cd0576040517f08c379a0000000000000000000000000000000000000000000000000000000008152600401610cc7906111fb565b60405180910390fd5b5f610cda8361069f565b90508073ffffffffffffffffffffffffffffffffffffffff168473ffffffffffffffffffffffffffffffffffffffff161480610d4957508373ffffffffffffffffffffffffffffffffffffffff16610d3184610299565b73ffffffffffffffffffffffffffffffffffffffff16145b91505092915050565b5f81519050919050565b5f82825260208201905092915050565b5f5b83811015610d89578082015181840152602081019050610d6e565b5f8484015250505050565b5f601f19601f8301169050919050565b5f610dae82610d52565b610db88185610d5c565b9350610dc8818560208601610d6c565b610dd181610d94565b840191505092915050565b5f6020820190508181035f830152610df48184610da4565b905092915050565b5f604051905090565b5f80fd5b5f80fd5b5f819050919050565b610e1f81610e0d565b8114610e29575f80fd5b50565b5f81359050610e3a81610e16565b92915050565b5f60208284031215610e5557610e54610e05565b5b5f610e6284828501610e2c565b91505092915050565b5f73ffffffffffffffffffffffffffffffffffffffff82169050919050565b5f610e9482610e6b565b9050919050565b610ea481610e8a565b82525050565b5f602082019050610ebd5f830184610e9b565b92915050565b610ecc81610e8a565b8114610ed6575f80fd5b50565b5f81359050610ee781610ec3565b92915050565b5f8060408385031215610f0357610f02610e05565b5b5f610f1085828601610ed9565b9250506020610f2185828601610e2c565b9150509250929050565b5f805f60608486031215610f4257610f41610e05565b5b5f610f4f86828701610ed9565b9350506020610f6086828701610ed9565b9250506040610f7186828701610e2c565b9150509250925092565b5f60208284031215610f9057610f8f610e05565b5b5f610f9d84828501610ed9565b91505092915050565b610faf81610e0d565b82525050565b5f602082019050610fc85f830184610fa6565b92915050565b5f80fd5b5f80fd5b7f4e487b71000000000000000000000000000000000000000000000000000000005f52604160045260245ffd5b61100c82610d94565b810181811067ffffffffffffffff8211171561102b5761102a610fd6565b5b80604052505050565b5f61103d610dfc565b90506110498282611003565b919050565b5f67ffffffffffffffff82111561106857611067610fd6565b5b61107182610d94565b9050602081019050919050565b828183375f83830152505050565b5f61109e6110998461104e565b611034565b9050828152602081018484840111156110ba576110b9610fd2565b5b6110c584828561107e565b509392505050565b5f82601f8301126110e1576110e0610fce565b5b81356110f184826020860161108c565b91505092915050565b5f80604083850312156111105761110f610e05565b5b5f61111d85828601610ed9565b925050602083013567ffffffffffffffff81111561113e5761113d610e09565b5b61114a858286016110cd565b9150509250929050565b7f4e487b71000000000000000000000000000000000000000000000000000000005f52602260045260245ffd5b5f600282049050600182168061119857607f821691505b6020821081036111ab576111aa611154565b5b50919050565b7f546f6b656e20646f6573206e6f742065786973740000000000000000000000005f82015250565b5f6111e5601483610d5c565b91506111f0826111b1565b602082019050919050565b5f6020820190508181035f830152611212816111d9565b9050919050565b7f43616e6e6f7420617070726f766520746f20746f6b656e206f776e65720000005f82015250565b5f61124d601d83610d5c565b915061125882611219565b602082019050919050565b5f6020820190508181035f83015261127a81611241565b9050919050565b7f4e6f742074686520746f6b656e206f776e6572000000000000000000000000005f82015250565b5f6112b5601383610d5c565b91506112c082611281565b602082019050919050565b5f6020820190508181035f8301526112e2816112a9565b9050919050565b7f4e6f7420617070726f766564206f72206f776e657200000000000000000000005f82015250565b5f61131d601583610d5c565b9150611328826112e9565b602082019050919050565b5f6020820190508181035f83015261134a81611311565b9050919050565b7f496e636f7272656374206f776e657200000000000000000000000000000000005f82015250565b5f611385600f83610d5c565b915061139082611351565b602082019050919050565b5f6020820190508181035f8301526113b281611379565b9050919050565b7f43616e6e6f74207472616e7366657220746f207a65726f2061646472657373005f82015250565b5f6113ed601f83610d5c565b91506113f8826113b9565b602082019050919050565b5f6020820190508181035f83015261141a816113e1565b9050919050565b7f4e487b71000000000000000000000000000000000000000000000000000000005f52601160045260245ffd5b5f61145882610e0d565b915061146383610e0d565b925082820390508181111561147b5761147a611421565b5b92915050565b5f61148b82610e0d565b915061149683610e0d565b92508282019050808211156114ae576114ad611421565b5b92915050565b7f5a65726f2061646472657373206973206e6f742076616c6964000000000000005f82015250565b5f6114e8601983610d5c565b91506114f3826114b4565b602082019050919050565b5f6020820190508181035f830152611515816114dc565b9050919050565b7f4e6f742074686520636f6e7472616374206f776e6572000000000000000000005f82015250565b5f611550601683610d5c565b915061155b8261151c565b602082019050919050565b5f6020820190508181035f83015261157d81611544565b9050919050565b5f819050815f5260205f209050919050565b5f6020601f8301049050919050565b5f82821b905092915050565b5f600883026115e07fffffffffffffffffffffffffffffffffffffffffffffffffffffffffffffffff826115a5565b6115ea86836115a5565b95508019841693508086168417925050509392505050565b5f819050919050565b5f61162561162061161b84610e0d565b611602565b610e0d565b9050919050565b5f819050919050565b61163e8361160b565b61165261164a8261162c565b8484546115b1565b825550505050565b5f90565b61166661165a565b611671818484611635565b505050565b5b81811015611694576116895f8261165e565b600181019050611677565b5050565b601f8211156116d9576116aa81611584565b6116b384611596565b810160208510156116c2578190505b6116d66116ce85611596565b830182611676565b50505b505050565b5f82821c905092915050565b5f6116f95f19846008026116de565b1980831691505092915050565b5f61171183836116ea565b9150826002028217905092915050565b61172a82610d52565b67ffffffffffffffff81111561174357611742610fd6565b5b61174d8254611181565b611758828285611698565b5f60209050601f831160018114611789575f8415611777578287015190505b6117818582611706565b8655506117e8565b601f19841661179786611584565b5f5b828110156117be57848901518255600182019150602085019450602081019050611799565b868310156117db57848901516117d7601f8916826116ea565b8355505b6001600288020188555050505b50505050505056fea2646970667358221220ce9e2bc20dd9c33c039f346badbe4fe9fee0f7d05715925828fb8ddc7f29340564736f6c63430008160033",
  "immutableReferences": {},
  "source": "// SPDX-License-Identifier: MIT\npragma solidity ^0.8.22;\n\ncontract Spacebear {\n    // Basic token information\n    string public name = \"Spacebear\";\n    string public symbol = \"SBR\";\n    \n    // Owner of the contract\n    address public owner;\n\n    // Token ID counter\n    uint256 private _tokenIdCounter;\n\n    // Mappings to store ownership, balances, token URIs, and approvals\n    mapping(uint256 => address) private _owners;\n    mapping(address => uint256) private _balances;\n    mapping(uint256 => string) private _tokenURIs;\n    mapping(uint256 => address) private _tokenApprovals;\n\n    // Events\n    event Transfer(address indexed from, address indexed to, uint256 indexed tokenId);\n    event Approval(address indexed owner, address indexed approved, uint256 indexed tokenId);\n\n    // Constructor to set the contract owner\n    constructor() {\n        owner = msg.sender;\n    }\n\n    // Modifier to restrict functions to the contract owner\n    modifier onlyOwner() {\n        require(msg.sender == owner, \"Not the contract owner\");\n        _;\n    }\n\n    // Function to mint a new token and set its URI\n    function safeMint(address to, string memory uri) public onlyOwner {\n        uint256 tokenId = _tokenIdCounter;\n        _tokenIdCounter += 1;\n\n        _owners[tokenId] = to;\n        _balances[to] += 1;\n        _tokenURIs[tokenId] = uri;\n\n        emit Transfer(address(0), to, tokenId);\n    }\n\n    // Function to check the balance of an address\n    function balanceOf(address ownerAddress) public view returns (uint256) {\n        require(ownerAddress != address(0), \"Zero address is not valid\");\n        return _balances[ownerAddress];\n    }\n\n    // Function to get the owner of a specific token ID\n    function ownerOf(uint256 tokenId) public view returns (address) {\n        address tokenOwner = _owners[tokenId];\n        require(tokenOwner != address(0), \"Token does not exist\");\n        return tokenOwner;\n    }\n\n    // Function to transfer a token to another address\n    function transferFrom(address from, address to, uint256 tokenId) public {\n        require(_isApprovedOrOwner(msg.sender, tokenId), \"Not approved or owner\");\n        require(ownerOf(tokenId) == from, \"Incorrect owner\");\n        require(to != address(0), \"Cannot transfer to zero address\");\n\n        _approve(address(0), tokenId); // Clear approvals\n        _balances[from] -= 1;\n        _balances[to] += 1;\n        _owners[tokenId] = to;\n\n        emit Transfer(from, to, tokenId);\n    }\n\n    // Function to approve an address to transfer a specific token\n    function approve(address to, uint256 tokenId) public {\n        address tokenOwner = ownerOf(tokenId);\n        require(to != tokenOwner, \"Cannot approve to token owner\");\n        require(msg.sender == tokenOwner, \"Not the token owner\");\n\n        _approve(to, tokenId);\n    }\n\n    // Internal function to set approval\n    function _approve(address to, uint256 tokenId) internal {\n        _tokenApprovals[tokenId] = to;\n        emit Approval(ownerOf(tokenId), to, tokenId);\n    }\n\n    // Function to get the approved address for a specific token ID\n    function getApproved(uint256 tokenId) public view returns (address) {\n        require(_exists(tokenId), \"Token does not exist\");\n        return _tokenApprovals[tokenId];\n    }\n\n    // Internal function to check if a token exists\n    function _exists(uint256 tokenId) internal view returns (bool) {\n        return _owners[tokenId] != address(0);\n    }\n\n    // Internal function to check if an address is approved or the owner of a token\n    function _isApprovedOrOwner(address spender, uint256 tokenId) internal view returns (bool) {\n        require(_exists(tokenId), \"Token does not exist\");\n        address tokenOwner = ownerOf(tokenId);\n        return (spender == tokenOwner || getApproved(tokenId) == spender);\n    }\n\n    // Function to retrieve the URI of a specific token\n    function tokenURI(uint256 tokenId) public view returns (string memory) {\n        require(_exists(tokenId), \"Token does not exist\");\n        return _tokenURIs[tokenId];\n    }\n}\n",
  "sourcePath": "/home/fahad/nft-project/truffle/contracts/Spacebear.sol",
  "compiler": {
    "name": "solc",
    "version": "0.8.22+commit.4fc1097e.Emscripten.clang"
  },
  "schemaVersion": "3.4.16",
  "updatedAt": "2024-11-27T06:24:41.222Z",
  "networkType": "ethereum",
  "devdoc": {
    "kind": "dev",
    "methods": {},
    "version": 1
  },
  "userdoc": {
    "kind": "user",
    "methods": {},
    "version": 1
  }
}